{
  "_format": "hh-sol-artifact-1",
  "contractName": "PAINT_ON_CHAIN",
  "sourceName": "contracts/PaintOnChain.sol",
  "abi": [
    {
      "inputs": [],
      "stateMutability": "nonpayable",
      "type": "constructor"
    },
    {
      "anonymous": false,
      "inputs": [
        {
          "indexed": true,
          "internalType": "address",
          "name": "owner",
          "type": "address"
        },
        {
          "indexed": true,
          "internalType": "address",
          "name": "approved",
          "type": "address"
        },
        {
          "indexed": true,
          "internalType": "uint256",
          "name": "tokenId",
          "type": "uint256"
        }
      ],
      "name": "Approval",
      "type": "event"
    },
    {
      "anonymous": false,
      "inputs": [
        {
          "indexed": true,
          "internalType": "address",
          "name": "owner",
          "type": "address"
        },
        {
          "indexed": true,
          "internalType": "address",
          "name": "operator",
          "type": "address"
        },
        {
          "indexed": false,
          "internalType": "bool",
          "name": "approved",
          "type": "bool"
        }
      ],
      "name": "ApprovalForAll",
      "type": "event"
    },
    {
      "anonymous": false,
      "inputs": [
        {
          "indexed": true,
          "internalType": "address",
          "name": "previousOwner",
          "type": "address"
        },
        {
          "indexed": true,
          "internalType": "address",
          "name": "newOwner",
          "type": "address"
        }
      ],
      "name": "OwnershipTransferred",
      "type": "event"
    },
    {
      "anonymous": false,
      "inputs": [
        {
          "indexed": true,
          "internalType": "address",
          "name": "from",
          "type": "address"
        },
        {
          "indexed": true,
          "internalType": "address",
          "name": "to",
          "type": "address"
        },
        {
          "indexed": true,
          "internalType": "uint256",
          "name": "tokenId",
          "type": "uint256"
        }
      ],
      "name": "Transfer",
      "type": "event"
    },
    {
      "inputs": [
        {
          "internalType": "address",
          "name": "to",
          "type": "address"
        },
        {
          "internalType": "uint256",
          "name": "tokenId",
          "type": "uint256"
        }
      ],
      "name": "approve",
      "outputs": [],
      "stateMutability": "nonpayable",
      "type": "function"
    },
    {
      "inputs": [
        {
          "internalType": "address",
          "name": "owner",
          "type": "address"
        }
      ],
      "name": "balanceOf",
      "outputs": [
        {
          "internalType": "uint256",
          "name": "",
          "type": "uint256"
        }
      ],
      "stateMutability": "view",
      "type": "function"
    },
    {
      "inputs": [
        {
          "internalType": "uint256",
          "name": "tokenId",
          "type": "uint256"
        }
      ],
      "name": "burnToken",
      "outputs": [],
      "stateMutability": "nonpayable",
      "type": "function"
    },
    {
      "inputs": [
        {
          "internalType": "uint256",
          "name": "tokenId",
          "type": "uint256"
        }
      ],
      "name": "forceBurn",
      "outputs": [],
      "stateMutability": "nonpayable",
      "type": "function"
    },
    {
      "inputs": [
        {
          "internalType": "uint256",
          "name": "tokenId",
          "type": "uint256"
        }
      ],
      "name": "generateImageData",
      "outputs": [
        {
          "internalType": "string",
          "name": "",
          "type": "string"
        }
      ],
      "stateMutability": "view",
      "type": "function"
    },
    {
      "inputs": [
        {
          "internalType": "uint256",
          "name": "tokenId",
          "type": "uint256"
        }
      ],
      "name": "getApproved",
      "outputs": [
        {
          "internalType": "address",
          "name": "",
          "type": "address"
        }
      ],
      "stateMutability": "view",
      "type": "function"
    },
    {
      "inputs": [],
      "name": "getAuthContractAddress",
      "outputs": [
        {
          "internalType": "address",
          "name": "",
          "type": "address"
        }
      ],
      "stateMutability": "view",
      "type": "function"
    },
    {
      "inputs": [],
      "name": "getNumberOfTokensBurned",
      "outputs": [
        {
          "internalType": "uint256",
          "name": "",
          "type": "uint256"
        }
      ],
      "stateMutability": "view",
      "type": "function"
    },
    {
      "inputs": [],
      "name": "getNumberOfTokensCreated",
      "outputs": [
        {
          "internalType": "uint256",
          "name": "",
          "type": "uint256"
        }
      ],
      "stateMutability": "view",
      "type": "function"
    },
    {
      "inputs": [],
      "name": "getWalletTokenBalance",
      "outputs": [
        {
          "internalType": "uint256",
          "name": "",
          "type": "uint256"
        }
      ],
      "stateMutability": "view",
      "type": "function"
    },
    {
      "inputs": [
        {
          "internalType": "address",
          "name": "owner",
          "type": "address"
        },
        {
          "internalType": "address",
          "name": "operator",
          "type": "address"
        }
      ],
      "name": "isApprovedForAll",
      "outputs": [
        {
          "internalType": "bool",
          "name": "",
          "type": "bool"
        }
      ],
      "stateMutability": "view",
      "type": "function"
    },
    {
      "inputs": [
        {
          "internalType": "address",
          "name": "to",
          "type": "address"
        },
        {
          "internalType": "string",
          "name": "_name",
          "type": "string"
        },
        {
          "internalType": "string",
          "name": "_description",
          "type": "string"
        },
        {
          "internalType": "string",
          "name": "_image",
          "type": "string"
        },
        {
          "internalType": "string",
          "name": "_attributes",
          "type": "string"
        }
      ],
      "name": "mint",
      "outputs": [],
      "stateMutability": "nonpayable",
      "type": "function"
    },
    {
      "inputs": [],
      "name": "name",
      "outputs": [
        {
          "internalType": "string",
          "name": "",
          "type": "string"
        }
      ],
      "stateMutability": "view",
      "type": "function"
    },
    {
      "inputs": [],
      "name": "owner",
      "outputs": [
        {
          "internalType": "address",
          "name": "",
          "type": "address"
        }
      ],
      "stateMutability": "view",
      "type": "function"
    },
    {
      "inputs": [
        {
          "internalType": "uint256",
          "name": "tokenId",
          "type": "uint256"
        }
      ],
      "name": "ownerOf",
      "outputs": [
        {
          "internalType": "address",
          "name": "",
          "type": "address"
        }
      ],
      "stateMutability": "view",
      "type": "function"
    },
    {
      "inputs": [],
      "name": "renounceOwnership",
      "outputs": [],
      "stateMutability": "nonpayable",
      "type": "function"
    },
    {
      "inputs": [
        {
          "internalType": "address",
          "name": "from",
          "type": "address"
        },
        {
          "internalType": "address",
          "name": "to",
          "type": "address"
        },
        {
          "internalType": "uint256",
          "name": "tokenId",
          "type": "uint256"
        }
      ],
      "name": "safeTransferFrom",
      "outputs": [],
      "stateMutability": "nonpayable",
      "type": "function"
    },
    {
      "inputs": [
        {
          "internalType": "address",
          "name": "from",
          "type": "address"
        },
        {
          "internalType": "address",
          "name": "to",
          "type": "address"
        },
        {
          "internalType": "uint256",
          "name": "tokenId",
          "type": "uint256"
        },
        {
          "internalType": "bytes",
          "name": "data",
          "type": "bytes"
        }
      ],
      "name": "safeTransferFrom",
      "outputs": [],
      "stateMutability": "nonpayable",
      "type": "function"
    },
    {
      "inputs": [
        {
          "internalType": "address",
          "name": "operator",
          "type": "address"
        },
        {
          "internalType": "bool",
          "name": "approved",
          "type": "bool"
        }
      ],
      "name": "setApprovalForAll",
      "outputs": [],
      "stateMutability": "nonpayable",
      "type": "function"
    },
    {
      "inputs": [
        {
          "internalType": "address",
          "name": "_contractAddress",
          "type": "address"
        }
      ],
      "name": "setAuthContractAddress",
      "outputs": [],
      "stateMutability": "nonpayable",
      "type": "function"
    },
    {
      "inputs": [
        {
          "internalType": "bytes4",
          "name": "interfaceId",
          "type": "bytes4"
        }
      ],
      "name": "supportsInterface",
      "outputs": [
        {
          "internalType": "bool",
          "name": "",
          "type": "bool"
        }
      ],
      "stateMutability": "view",
      "type": "function"
    },
    {
      "inputs": [],
      "name": "symbol",
      "outputs": [
        {
          "internalType": "string",
          "name": "",
          "type": "string"
        }
      ],
      "stateMutability": "view",
      "type": "function"
    },
    {
      "inputs": [
        {
          "internalType": "uint256",
          "name": "index",
          "type": "uint256"
        }
      ],
      "name": "tokenByIndex",
      "outputs": [
        {
          "internalType": "uint256",
          "name": "",
          "type": "uint256"
        }
      ],
      "stateMutability": "view",
      "type": "function"
    },
    {
      "inputs": [
        {
          "internalType": "address",
          "name": "owner",
          "type": "address"
        },
        {
          "internalType": "uint256",
          "name": "index",
          "type": "uint256"
        }
      ],
      "name": "tokenOfOwnerByIndex",
      "outputs": [
        {
          "internalType": "uint256",
          "name": "",
          "type": "uint256"
        }
      ],
      "stateMutability": "view",
      "type": "function"
    },
    {
      "inputs": [
        {
          "internalType": "uint256",
          "name": "tokenId",
          "type": "uint256"
        }
      ],
      "name": "tokenURI",
      "outputs": [
        {
          "internalType": "string",
          "name": "",
          "type": "string"
        }
      ],
      "stateMutability": "view",
      "type": "function"
    },
    {
      "inputs": [
        {
          "internalType": "uint256",
          "name": "",
          "type": "uint256"
        }
      ],
      "name": "tokens",
      "outputs": [
        {
          "internalType": "string",
          "name": "name",
          "type": "string"
        },
        {
          "internalType": "string",
          "name": "description",
          "type": "string"
        },
        {
          "internalType": "string",
          "name": "image",
          "type": "string"
        },
        {
          "internalType": "string",
          "name": "attributes",
          "type": "string"
        }
      ],
      "stateMutability": "view",
      "type": "function"
    },
    {
      "inputs": [],
      "name": "totalSupply",
      "outputs": [
        {
          "internalType": "uint256",
          "name": "",
          "type": "uint256"
        }
      ],
      "stateMutability": "view",
      "type": "function"
    },
    {
      "inputs": [
        {
          "internalType": "address",
          "name": "from",
          "type": "address"
        },
        {
          "internalType": "address",
          "name": "to",
          "type": "address"
        },
        {
          "internalType": "uint256",
          "name": "tokenId",
          "type": "uint256"
        }
      ],
      "name": "transferFrom",
      "outputs": [],
      "stateMutability": "nonpayable",
      "type": "function"
    },
    {
      "inputs": [
        {
          "internalType": "address",
          "name": "newOwner",
          "type": "address"
        }
      ],
      "name": "transferOwnership",
      "outputs": [],
      "stateMutability": "nonpayable",
      "type": "function"
    },
    {
      "inputs": [],
      "name": "walletHoldsAuthToken",
      "outputs": [
        {
          "internalType": "bool",
          "name": "",
          "type": "bool"
        }
      ],
      "stateMutability": "view",
      "type": "function"
    }
  ],
  "bytecode": "0x60806040526000600d556000600e553480156200001b57600080fd5b506040518060400160405280600e81526020017f5041494e54204f4e20434841494e0000000000000000000000000000000000008152506040518060400160405280600c81526020017f5041494e544f4e434841494e00000000000000000000000000000000000000008152508160009080519060200190620000a0929190620001b0565b508060019080519060200190620000b9929190620001b0565b505050620000dc620000d0620000e260201b60201c565b620000ea60201b60201c565b620002c5565b600033905090565b6000600a60009054906101000a900473ffffffffffffffffffffffffffffffffffffffff16905081600a60006101000a81548173ffffffffffffffffffffffffffffffffffffffff021916908373ffffffffffffffffffffffffffffffffffffffff1602179055508173ffffffffffffffffffffffffffffffffffffffff168173ffffffffffffffffffffffffffffffffffffffff167f8be0079c531659141344cd1fd0a4f28419497f9722a3daafe3b4186f6b6457e060405160405180910390a35050565b828054620001be9062000260565b90600052602060002090601f016020900481019282620001e257600085556200022e565b82601f10620001fd57805160ff19168380011785556200022e565b828001600101855582156200022e579182015b828111156200022d57825182559160200191906001019062000210565b5b5090506200023d919062000241565b5090565b5b808211156200025c57600081600090555060010162000242565b5090565b600060028204905060018216806200027957607f821691505b6020821081141562000290576200028f62000296565b5b50919050565b7f4e487b7100000000000000000000000000000000000000000000000000000000600052602260045260246000fd5b613ff680620002d56000396000f3fe608060405234801561001057600080fd5b50600436106101da5760003560e01c806370a0823111610104578063a40d1b10116100a2578063d6d4eb7f11610071578063d6d4eb7f1461055a578063e985e9c514610576578063f2fde38b146105a6578063f57ceb71146105c2576101da565b8063a40d1b10146104d4578063b88d4fde146104f0578063c2f23f421461050c578063c87b56dd1461052a576101da565b806382b53355116100de57806382b533551461045e5780638da5cb5b1461047c57806395d89b411461049a578063a22cb465146104b8576101da565b806370a0823114610408578063715018a6146104385780637b47ec1a14610442576101da565b80632a62c37d1161017c5780634c0c99021161014b5780634c0c9902146103575780634f64b2be146103755780634f6ccce7146103a85780636352211e146103d8576101da565b80632a62c37d146102d15780632f745c59146102ef57806331c10da31461031f57806342842e0e1461033b576101da565b8063095ea7b3116101b8578063095ea7b31461025d57806315d061a91461027957806318160ddd1461029757806323b872dd146102b5576101da565b806301ffc9a7146101df57806306fdde031461020f578063081812fc1461022d575b600080fd5b6101f960048036038101906101f49190612c4b565b6105f2565b60405161020691906132cb565b60405180910390f35b610217610604565b60405161022491906132e6565b60405180910390f35b61024760048036038101906102429190612ca5565b610696565b6040516102549190613264565b60405180910390f35b61027760048036038101906102729190612c0b565b6106dc565b005b6102816107f4565b60405161028e9190613549565b60405180910390f35b61029f610804565b6040516102ac9190613549565b60405180910390f35b6102cf60048036038101906102ca9190612a0a565b610811565b005b6102d9610871565b6040516102e69190613549565b60405180910390f35b61030960048036038101906103049190612c0b565b61087b565b6040516103169190613549565b60405180910390f35b61033960048036038101906103349190612ca5565b610920565b005b61035560048036038101906103509190612a0a565b61094c565b005b61035f61096c565b60405161036c91906132cb565b60405180910390f35b61038f600480360381019061038a9190612ca5565b610a20565b60405161039f9493929190613308565b60405180910390f35b6103c260048036038101906103bd9190612ca5565b610c70565b6040516103cf9190613549565b60405180910390f35b6103f260048036038101906103ed9190612ca5565b610ce1565b6040516103ff9190613264565b60405180910390f35b610422600480360381019061041d919061299d565b610d93565b60405161042f9190613549565b60405180910390f35b610440610e4b565b005b61045c60048036038101906104579190612ca5565b610e5f565b005b610466610ec0565b6040516104739190613549565b60405180910390f35b610484610eca565b6040516104919190613264565b60405180910390f35b6104a2610ef4565b6040516104af91906132e6565b60405180910390f35b6104d260048036038101906104cd9190612ae0565b610f86565b005b6104ee60048036038101906104e99190612b20565b610f9c565b005b61050a60048036038101906105059190612a5d565b611074565b005b6105146110d6565b6040516105219190613264565b60405180910390f35b610544600480360381019061053f9190612ca5565b611100565b60405161055191906132e6565b60405180910390f35b610574600480360381019061056f919061299d565b6111a3565b005b610590600480360381019061058b91906129ca565b6111ef565b60405161059d91906132cb565b60405180910390f35b6105c060048036038101906105bb919061299d565b611283565b005b6105dc60048036038101906105d79190612ca5565b611307565b6040516105e991906132e6565b60405180910390f35b60006105fd82611372565b9050919050565b6060600080546106139061380e565b80601f016020809104026020016040519081016040528092919081815260200182805461063f9061380e565b801561068c5780601f106106615761010080835404028352916020019161068c565b820191906000526020600020905b81548152906001019060200180831161066f57829003601f168201915b5050505050905090565b60006106a1826113ec565b6004600083815260200190815260200160002060009054906101000a900473ffffffffffffffffffffffffffffffffffffffff169050919050565b60006106e782610ce1565b90508073ffffffffffffffffffffffffffffffffffffffff168373ffffffffffffffffffffffffffffffffffffffff161415610758576040517f08c379a000000000000000000000000000000000000000000000000000000000815260040161074f906134e9565b60405180910390fd5b8073ffffffffffffffffffffffffffffffffffffffff16610777611437565b73ffffffffffffffffffffffffffffffffffffffff1614806107a657506107a5816107a0611437565b6111ef565b5b6107e5576040517f08c379a00000000000000000000000000000000000000000000000000000000081526004016107dc90613469565b60405180910390fd5b6107ef838361143f565b505050565b60006107ff33610d93565b905090565b6000600880549050905090565b61082261081c611437565b826114f8565b610861576040517f08c379a000000000000000000000000000000000000000000000000000000000815260040161085890613529565b60405180910390fd5b61086c83838361158d565b505050565b6000600d54905090565b600061088683610d93565b82106108c7576040517f08c379a00000000000000000000000000000000000000000000000000000000081526004016108be90613369565b60405180910390fd5b600660008473ffffffffffffffffffffffffffffffffffffffff1673ffffffffffffffffffffffffffffffffffffffff168152602001908152602001600020600083815260200190815260200160002054905092915050565b6109286117f4565b61093181611872565b600e600081548092919061094490613871565b919050555050565b61096783838360405180602001604052806000815250611074565b505050565b600080600c60009054906101000a900473ffffffffffffffffffffffffffffffffffffffff1673ffffffffffffffffffffffffffffffffffffffff166370a08231336040518263ffffffff1660e01b81526004016109ca9190613264565b60206040518083038186803b1580156109e257600080fd5b505afa1580156109f6573d6000803e3d6000fd5b505050506040513d601f19601f82011682018060405250810190610a1a9190612cd2565b11905090565b600b602052806000526040600020600091509050806000018054610a439061380e565b80601f0160208091040260200160405190810160405280929190818152602001828054610a6f9061380e565b8015610abc5780601f10610a9157610100808354040283529160200191610abc565b820191906000526020600020905b815481529060010190602001808311610a9f57829003601f168201915b505050505090806001018054610ad19061380e565b80601f0160208091040260200160405190810160405280929190818152602001828054610afd9061380e565b8015610b4a5780601f10610b1f57610100808354040283529160200191610b4a565b820191906000526020600020905b815481529060010190602001808311610b2d57829003601f168201915b505050505090806002018054610b5f9061380e565b80601f0160208091040260200160405190810160405280929190818152602001828054610b8b9061380e565b8015610bd85780601f10610bad57610100808354040283529160200191610bd8565b820191906000526020600020905b815481529060010190602001808311610bbb57829003601f168201915b505050505090806003018054610bed9061380e565b80601f0160208091040260200160405190810160405280929190818152602001828054610c199061380e565b8015610c665780601f10610c3b57610100808354040283529160200191610c66565b820191906000526020600020905b815481529060010190602001808311610c4957829003601f168201915b5050505050905084565b6000610c7a610804565b8210610cbb576040517f08c379a0000000000000000000000000000000000000000000000000000000008152600401610cb290613509565b60405180910390fd5b60088281548110610ccf57610cce613976565b5b90600052602060002001549050919050565b6000806002600084815260200190815260200160002060009054906101000a900473ffffffffffffffffffffffffffffffffffffffff169050600073ffffffffffffffffffffffffffffffffffffffff168173ffffffffffffffffffffffffffffffffffffffff161415610d8a576040517f08c379a0000000000000000000000000000000000000000000000000000000008152600401610d81906134c9565b60405180910390fd5b80915050919050565b60008073ffffffffffffffffffffffffffffffffffffffff168273ffffffffffffffffffffffffffffffffffffffff161415610e04576040517f08c379a0000000000000000000000000000000000000000000000000000000008152600401610dfb90613449565b60405180910390fd5b600360008373ffffffffffffffffffffffffffffffffffffffff1673ffffffffffffffffffffffffffffffffffffffff168152602001908152602001600020549050919050565b610e536117f4565b610e5d600061187e565b565b3373ffffffffffffffffffffffffffffffffffffffff16610e7f82610ce1565b73ffffffffffffffffffffffffffffffffffffffff161415610ebd57610ea481611872565b600e6000815480929190610eb790613871565b91905055505b50565b6000600e54905090565b6000600a60009054906101000a900473ffffffffffffffffffffffffffffffffffffffff16905090565b606060018054610f039061380e565b80601f0160208091040260200160405190810160405280929190818152602001828054610f2f9061380e565b8015610f7c5780601f10610f5157610100808354040283529160200191610f7c565b820191906000526020600020905b815481529060010190602001808311610f5f57829003601f168201915b5050505050905090565b610f98610f91611437565b8383611944565b5050565b610fa885600d54611ab1565b604051806080016040528085815260200184815260200183815260200182815250600b6000600d5481526020019081526020016000206000820151816000019080519060200190610ffa92919061279c565b50602082015181600101908051906020019061101792919061279c565b50604082015181600201908051906020019061103492919061279c565b50606082015181600301908051906020019061105192919061279c565b50905050600d600081548092919061106890613871565b91905055505050505050565b61108561107f611437565b836114f8565b6110c4576040517f08c379a00000000000000000000000000000000000000000000000000000000081526004016110bb90613529565b60405180910390fd5b6110d084848484611acf565b50505050565b6000600c60009054906101000a900473ffffffffffffffffffffffffffffffffffffffff16905090565b60606000611179600b6000858152602001908152602001600020600001600b600086815260200190815260200160002060010161113c86611307565b600b6000888152602001908152602001600020600301604051602001611165949392919061318a565b604051602081830303815290604052611b2b565b90508060405160200161118c9190613220565b604051602081830303815290604052915050919050565b6111ab6117f4565b80600c60006101000a81548173ffffffffffffffffffffffffffffffffffffffff021916908373ffffffffffffffffffffffffffffffffffffffff16021790555050565b6000600560008473ffffffffffffffffffffffffffffffffffffffff1673ffffffffffffffffffffffffffffffffffffffff16815260200190815260200160002060008373ffffffffffffffffffffffffffffffffffffffff1673ffffffffffffffffffffffffffffffffffffffff16815260200190815260200160002060009054906101000a900460ff16905092915050565b61128b6117f4565b600073ffffffffffffffffffffffffffffffffffffffff168173ffffffffffffffffffffffffffffffffffffffff1614156112fb576040517f08c379a00000000000000000000000000000000000000000000000000000000081526004016112f2906133a9565b60405180910390fd5b6113048161187e565b50565b60606000600b60008481526020019081526020016000206002016040516020016113319190613173565b604051602081830303815290604052905061134b81611b2b565b60405160200161135b9190613242565b604051602081830303815290604052915050919050565b60007f780e9d63000000000000000000000000000000000000000000000000000000007bffffffffffffffffffffffffffffffffffffffffffffffffffffffff1916827bffffffffffffffffffffffffffffffffffffffffffffffffffffffff191614806113e557506113e482611ca4565b5b9050919050565b6113f581611d86565b611434576040517f08c379a000000000000000000000000000000000000000000000000000000000815260040161142b906134c9565b60405180910390fd5b50565b600033905090565b816004600083815260200190815260200160002060006101000a81548173ffffffffffffffffffffffffffffffffffffffff021916908373ffffffffffffffffffffffffffffffffffffffff160217905550808273ffffffffffffffffffffffffffffffffffffffff166114b283610ce1565b73ffffffffffffffffffffffffffffffffffffffff167f8c5be1e5ebec7d5bd14f71427d1e84f3dd0314c0f7b2291e5b200ac8c7c3b92560405160405180910390a45050565b60008061150483610ce1565b90508073ffffffffffffffffffffffffffffffffffffffff168473ffffffffffffffffffffffffffffffffffffffff161480611546575061154581856111ef565b5b8061158457508373ffffffffffffffffffffffffffffffffffffffff1661156c84610696565b73ffffffffffffffffffffffffffffffffffffffff16145b91505092915050565b8273ffffffffffffffffffffffffffffffffffffffff166115ad82610ce1565b73ffffffffffffffffffffffffffffffffffffffff1614611603576040517f08c379a00000000000000000000000000000000000000000000000000000000081526004016115fa906133c9565b60405180910390fd5b600073ffffffffffffffffffffffffffffffffffffffff168273ffffffffffffffffffffffffffffffffffffffff161415611673576040517f08c379a000000000000000000000000000000000000000000000000000000000815260040161166a90613409565b60405180910390fd5b61167e838383611df2565b61168960008261143f565b6001600360008573ffffffffffffffffffffffffffffffffffffffff1673ffffffffffffffffffffffffffffffffffffffff16815260200190815260200160002060008282546116d99190613724565b925050819055506001600360008473ffffffffffffffffffffffffffffffffffffffff1673ffffffffffffffffffffffffffffffffffffffff16815260200190815260200160002060008282546117309190613643565b92505081905550816002600083815260200190815260200160002060006101000a81548173ffffffffffffffffffffffffffffffffffffffff021916908373ffffffffffffffffffffffffffffffffffffffff160217905550808273ffffffffffffffffffffffffffffffffffffffff168473ffffffffffffffffffffffffffffffffffffffff167fddf252ad1be2c89b69c2b068fc378daa952ba7f163c4a11628f55a4df523b3ef60405160405180910390a46117ef838383611e02565b505050565b6117fc611437565b73ffffffffffffffffffffffffffffffffffffffff1661181a610eca565b73ffffffffffffffffffffffffffffffffffffffff1614611870576040517f08c379a0000000000000000000000000000000000000000000000000000000008152600401611867906134a9565b60405180910390fd5b565b61187b81611e07565b50565b6000600a60009054906101000a900473ffffffffffffffffffffffffffffffffffffffff16905081600a60006101000a81548173ffffffffffffffffffffffffffffffffffffffff021916908373ffffffffffffffffffffffffffffffffffffffff1602179055508173ffffffffffffffffffffffffffffffffffffffff168173ffffffffffffffffffffffffffffffffffffffff167f8be0079c531659141344cd1fd0a4f28419497f9722a3daafe3b4186f6b6457e060405160405180910390a35050565b8173ffffffffffffffffffffffffffffffffffffffff168373ffffffffffffffffffffffffffffffffffffffff1614156119b3576040517f08c379a00000000000000000000000000000000000000000000000000000000081526004016119aa90613429565b60405180910390fd5b80600560008573ffffffffffffffffffffffffffffffffffffffff1673ffffffffffffffffffffffffffffffffffffffff16815260200190815260200160002060008473ffffffffffffffffffffffffffffffffffffffff1673ffffffffffffffffffffffffffffffffffffffff16815260200190815260200160002060006101000a81548160ff0219169083151502179055508173ffffffffffffffffffffffffffffffffffffffff168373ffffffffffffffffffffffffffffffffffffffff167f17307eab39ab6107e8899845ad3d59bd9653f200f220920489ca2b5937696c3183604051611aa491906132cb565b60405180910390a3505050565b611acb828260405180602001604052806000815250611f24565b5050565b611ada84848461158d565b611ae684848484611f7f565b611b25576040517f08c379a0000000000000000000000000000000000000000000000000000000008152600401611b1c90613389565b60405180910390fd5b50505050565b6060600082511415611b4e57604051806020016040528060008152509050611c9f565b6000604051806060016040528060408152602001613f816040913990506000600360028551611b7d9190613643565b611b879190613699565b6004611b9391906136ca565b90506000602082611ba49190613643565b67ffffffffffffffff811115611bbd57611bbc6139a5565b5b6040519080825280601f01601f191660200182016040528015611bef5781602001600182028036833780820191505090505b509050818152600183018586518101602084015b81831015611c5e576003830192508251603f8160121c168501518253600182019150603f81600c1c168501518253600182019150603f8160061c168501518253600182019150603f8116850151825360018201915050611c03565b600389510660018114611c785760028114611c8857611c93565b613d3d60f01b6002830352611c93565b603d60f81b60018303525b50505050508093505050505b919050565b60007f80ac58cd000000000000000000000000000000000000000000000000000000007bffffffffffffffffffffffffffffffffffffffffffffffffffffffff1916827bffffffffffffffffffffffffffffffffffffffffffffffffffffffff19161480611d6f57507f5b5e139f000000000000000000000000000000000000000000000000000000007bffffffffffffffffffffffffffffffffffffffffffffffffffffffff1916827bffffffffffffffffffffffffffffffffffffffffffffffffffffffff1916145b80611d7f5750611d7e82612116565b5b9050919050565b60008073ffffffffffffffffffffffffffffffffffffffff166002600084815260200190815260200160002060009054906101000a900473ffffffffffffffffffffffffffffffffffffffff1673ffffffffffffffffffffffffffffffffffffffff1614159050919050565b611dfd838383612180565b505050565b505050565b6000611e1282610ce1565b9050611e2081600084611df2565b611e2b60008361143f565b6001600360008373ffffffffffffffffffffffffffffffffffffffff1673ffffffffffffffffffffffffffffffffffffffff1681526020019081526020016000206000828254611e7b9190613724565b925050819055506002600083815260200190815260200160002060006101000a81549073ffffffffffffffffffffffffffffffffffffffff021916905581600073ffffffffffffffffffffffffffffffffffffffff168273ffffffffffffffffffffffffffffffffffffffff167fddf252ad1be2c89b69c2b068fc378daa952ba7f163c4a11628f55a4df523b3ef60405160405180910390a4611f2081600084611e02565b5050565b611f2e8383612294565b611f3b6000848484611f7f565b611f7a576040517f08c379a0000000000000000000000000000000000000000000000000000000008152600401611f7190613389565b60405180910390fd5b505050565b6000611fa08473ffffffffffffffffffffffffffffffffffffffff1661246e565b15612109578373ffffffffffffffffffffffffffffffffffffffff1663150b7a02611fc9611437565b8786866040518563ffffffff1660e01b8152600401611feb949392919061327f565b602060405180830381600087803b15801561200557600080fd5b505af192505050801561203657506040513d601f19601f820116820180604052508101906120339190612c78565b60015b6120b9573d8060008114612066576040519150601f19603f3d011682016040523d82523d6000602084013e61206b565b606091505b506000815114156120b1576040517f08c379a00000000000000000000000000000000000000000000000000000000081526004016120a890613389565b60405180910390fd5b805181602001fd5b63150b7a0260e01b7bffffffffffffffffffffffffffffffffffffffffffffffffffffffff1916817bffffffffffffffffffffffffffffffffffffffffffffffffffffffff19161491505061210e565b600190505b949350505050565b60007f01ffc9a7000000000000000000000000000000000000000000000000000000007bffffffffffffffffffffffffffffffffffffffffffffffffffffffff1916827bffffffffffffffffffffffffffffffffffffffffffffffffffffffff1916149050919050565b61218b838383612491565b600073ffffffffffffffffffffffffffffffffffffffff168373ffffffffffffffffffffffffffffffffffffffff1614156121ce576121c981612496565b61220d565b8173ffffffffffffffffffffffffffffffffffffffff168373ffffffffffffffffffffffffffffffffffffffff161461220c5761220b83826124df565b5b5b600073ffffffffffffffffffffffffffffffffffffffff168273ffffffffffffffffffffffffffffffffffffffff1614156122505761224b8161264c565b61228f565b8273ffffffffffffffffffffffffffffffffffffffff168273ffffffffffffffffffffffffffffffffffffffff161461228e5761228d828261271d565b5b5b505050565b600073ffffffffffffffffffffffffffffffffffffffff168273ffffffffffffffffffffffffffffffffffffffff161415612304576040517f08c379a00000000000000000000000000000000000000000000000000000000081526004016122fb90613489565b60405180910390fd5b61230d81611d86565b1561234d576040517f08c379a0000000000000000000000000000000000000000000000000000000008152600401612344906133e9565b60405180910390fd5b61235960008383611df2565b6001600360008473ffffffffffffffffffffffffffffffffffffffff1673ffffffffffffffffffffffffffffffffffffffff16815260200190815260200160002060008282546123a99190613643565b92505081905550816002600083815260200190815260200160002060006101000a81548173ffffffffffffffffffffffffffffffffffffffff021916908373ffffffffffffffffffffffffffffffffffffffff160217905550808273ffffffffffffffffffffffffffffffffffffffff16600073ffffffffffffffffffffffffffffffffffffffff167fddf252ad1be2c89b69c2b068fc378daa952ba7f163c4a11628f55a4df523b3ef60405160405180910390a461246a60008383611e02565b5050565b6000808273ffffffffffffffffffffffffffffffffffffffff163b119050919050565b505050565b6008805490506009600083815260200190815260200160002081905550600881908060018154018082558091505060019003906000526020600020016000909190919091505550565b600060016124ec84610d93565b6124f69190613724565b90506000600760008481526020019081526020016000205490508181146125db576000600660008673ffffffffffffffffffffffffffffffffffffffff1673ffffffffffffffffffffffffffffffffffffffff168152602001908152602001600020600084815260200190815260200160002054905080600660008773ffffffffffffffffffffffffffffffffffffffff1673ffffffffffffffffffffffffffffffffffffffff168152602001908152602001600020600084815260200190815260200160002081905550816007600083815260200190815260200160002081905550505b6007600084815260200190815260200160002060009055600660008573ffffffffffffffffffffffffffffffffffffffff1673ffffffffffffffffffffffffffffffffffffffff16815260200190815260200160002060008381526020019081526020016000206000905550505050565b600060016008805490506126609190613724565b90506000600960008481526020019081526020016000205490506000600883815481106126905761268f613976565b5b9060005260206000200154905080600883815481106126b2576126b1613976565b5b90600052602060002001819055508160096000838152602001908152602001600020819055506009600085815260200190815260200160002060009055600880548061270157612700613947565b5b6001900381819060005260206000200160009055905550505050565b600061272883610d93565b905081600660008573ffffffffffffffffffffffffffffffffffffffff1673ffffffffffffffffffffffffffffffffffffffff168152602001908152602001600020600083815260200190815260200160002081905550806007600084815260200190815260200160002081905550505050565b8280546127a89061380e565b90600052602060002090601f0160209004810192826127ca5760008555612811565b82601f106127e357805160ff1916838001178555612811565b82800160010185558215612811579182015b828111156128105782518255916020019190600101906127f5565b5b50905061281e9190612822565b5090565b5b8082111561283b576000816000905550600101612823565b5090565b600061285261284d84613589565b613564565b90508281526020810184848401111561286e5761286d6139d9565b5b6128798482856137cc565b509392505050565b600061289461288f846135ba565b613564565b9050828152602081018484840111156128b0576128af6139d9565b5b6128bb8482856137cc565b509392505050565b6000813590506128d281613f24565b92915050565b6000813590506128e781613f3b565b92915050565b6000813590506128fc81613f52565b92915050565b60008151905061291181613f52565b92915050565b600082601f83011261292c5761292b6139d4565b5b813561293c84826020860161283f565b91505092915050565b600082601f83011261295a576129596139d4565b5b813561296a848260208601612881565b91505092915050565b60008135905061298281613f69565b92915050565b60008151905061299781613f69565b92915050565b6000602082840312156129b3576129b26139e3565b5b60006129c1848285016128c3565b91505092915050565b600080604083850312156129e1576129e06139e3565b5b60006129ef858286016128c3565b9250506020612a00858286016128c3565b9150509250929050565b600080600060608486031215612a2357612a226139e3565b5b6000612a31868287016128c3565b9350506020612a42868287016128c3565b9250506040612a5386828701612973565b9150509250925092565b60008060008060808587031215612a7757612a766139e3565b5b6000612a85878288016128c3565b9450506020612a96878288016128c3565b9350506040612aa787828801612973565b925050606085013567ffffffffffffffff811115612ac857612ac76139de565b5b612ad487828801612917565b91505092959194509250565b60008060408385031215612af757612af66139e3565b5b6000612b05858286016128c3565b9250506020612b16858286016128d8565b9150509250929050565b600080600080600060a08688031215612b3c57612b3b6139e3565b5b6000612b4a888289016128c3565b955050602086013567ffffffffffffffff811115612b6b57612b6a6139de565b5b612b7788828901612945565b945050604086013567ffffffffffffffff811115612b9857612b976139de565b5b612ba488828901612945565b935050606086013567ffffffffffffffff811115612bc557612bc46139de565b5b612bd188828901612945565b925050608086013567ffffffffffffffff811115612bf257612bf16139de565b5b612bfe88828901612945565b9150509295509295909350565b60008060408385031215612c2257612c216139e3565b5b6000612c30858286016128c3565b9250506020612c4185828601612973565b9150509250929050565b600060208284031215612c6157612c606139e3565b5b6000612c6f848285016128ed565b91505092915050565b600060208284031215612c8e57612c8d6139e3565b5b6000612c9c84828501612902565b91505092915050565b600060208284031215612cbb57612cba6139e3565b5b6000612cc984828501612973565b91505092915050565b600060208284031215612ce857612ce76139e3565b5b6000612cf684828501612988565b91505092915050565b612d0881613758565b82525050565b612d178161376a565b82525050565b6000612d2882613600565b612d328185613616565b9350612d428185602086016137db565b612d4b816139e8565b840191505092915050565b6000612d618261360b565b612d6b8185613627565b9350612d7b8185602086016137db565b612d84816139e8565b840191505092915050565b6000612d9a8261360b565b612da48185613638565b9350612db48185602086016137db565b80840191505092915050565b60008154612dcd8161380e565b612dd78186613638565b94506001821660008114612df25760018114612e0357612e36565b60ff19831686528186019350612e36565b612e0c856135eb565b60005b83811015612e2e57815481890152600182019150602081019050612e0f565b838801955050505b50505092915050565b6000612e4c602b83613627565b9150612e57826139f9565b604082019050919050565b6000612e6f603283613627565b9150612e7a82613a48565b604082019050919050565b6000612e92602683613627565b9150612e9d82613a97565b604082019050919050565b6000612eb5600283613638565b9150612ec082613ae6565b600282019050919050565b6000612ed8602583613627565b9150612ee382613b0f565b604082019050919050565b6000612efb601c83613627565b9150612f0682613b5e565b602082019050919050565b6000612f1e600f83613638565b9150612f2982613b87565b600f82019050919050565b6000612f41602483613627565b9150612f4c82613bb0565b604082019050919050565b6000612f64601983613627565b9150612f6f82613bff565b602082019050919050565b6000612f87601083613638565b9150612f9282613c28565b601082019050919050565b6000612faa602983613627565b9150612fb582613c51565b604082019050919050565b6000612fcd600283613638565b9150612fd882613ca0565b600282019050919050565b6000612ff0603e83613627565b9150612ffb82613cc9565b604082019050919050565b6000613013602083613627565b915061301e82613d18565b602082019050919050565b6000613036602083613627565b915061304182613d41565b602082019050919050565b6000613059600a83613638565b915061306482613d6a565b600a82019050919050565b600061307c601883613627565b915061308782613d93565b602082019050919050565b600061309f602183613627565b91506130aa82613dbc565b604082019050919050565b60006130c2601d83613638565b91506130cd82613e0b565b601d82019050919050565b60006130e5602c83613627565b91506130f082613e34565b604082019050919050565b6000613108602e83613627565b915061311382613e83565b604082019050919050565b600061312b600f83613638565b915061313682613ed2565b600f82019050919050565b600061314e601a83613638565b915061315982613efb565b601a82019050919050565b61316d816137c2565b82525050565b600061317f8284612dc0565b915081905092915050565b60006131958261304c565b91506131a18287612dc0565b91506131ac82612ea8565b91506131b782612f7a565b91506131c38286612dc0565b91506131ce82612ea8565b91506131d982612f11565b91506131e58285612d8f565b91506131f082612ea8565b91506131fb8261311e565b91506132078284612dc0565b915061321282612fc0565b915081905095945050505050565b600061322b826130b5565b91506132378284612d8f565b915081905092915050565b600061324d82613141565b91506132598284612d8f565b915081905092915050565b60006020820190506132796000830184612cff565b92915050565b60006080820190506132946000830187612cff565b6132a16020830186612cff565b6132ae6040830185613164565b81810360608301526132c08184612d1d565b905095945050505050565b60006020820190506132e06000830184612d0e565b92915050565b600060208201905081810360008301526133008184612d56565b905092915050565b600060808201905081810360008301526133228187612d56565b905081810360208301526133368186612d56565b9050818103604083015261334a8185612d56565b9050818103606083015261335e8184612d56565b905095945050505050565b6000602082019050818103600083015261338281612e3f565b9050919050565b600060208201905081810360008301526133a281612e62565b9050919050565b600060208201905081810360008301526133c281612e85565b9050919050565b600060208201905081810360008301526133e281612ecb565b9050919050565b6000602082019050818103600083015261340281612eee565b9050919050565b6000602082019050818103600083015261342281612f34565b9050919050565b6000602082019050818103600083015261344281612f57565b9050919050565b6000602082019050818103600083015261346281612f9d565b9050919050565b6000602082019050818103600083015261348281612fe3565b9050919050565b600060208201905081810360008301526134a281613006565b9050919050565b600060208201905081810360008301526134c281613029565b9050919050565b600060208201905081810360008301526134e28161306f565b9050919050565b6000602082019050818103600083015261350281613092565b9050919050565b60006020820190508181036000830152613522816130d8565b9050919050565b60006020820190508181036000830152613542816130fb565b9050919050565b600060208201905061355e6000830184613164565b92915050565b600061356e61357f565b905061357a8282613840565b919050565b6000604051905090565b600067ffffffffffffffff8211156135a4576135a36139a5565b5b6135ad826139e8565b9050602081019050919050565b600067ffffffffffffffff8211156135d5576135d46139a5565b5b6135de826139e8565b9050602081019050919050565b60008190508160005260206000209050919050565b600081519050919050565b600081519050919050565b600082825260208201905092915050565b600082825260208201905092915050565b600081905092915050565b600061364e826137c2565b9150613659836137c2565b9250827fffffffffffffffffffffffffffffffffffffffffffffffffffffffffffffffff0382111561368e5761368d6138ba565b5b828201905092915050565b60006136a4826137c2565b91506136af836137c2565b9250826136bf576136be6138e9565b5b828204905092915050565b60006136d5826137c2565b91506136e0836137c2565b9250817fffffffffffffffffffffffffffffffffffffffffffffffffffffffffffffffff0483118215151615613719576137186138ba565b5b828202905092915050565b600061372f826137c2565b915061373a836137c2565b92508282101561374d5761374c6138ba565b5b828203905092915050565b6000613763826137a2565b9050919050565b60008115159050919050565b60007fffffffff0000000000000000000000000000000000000000000000000000000082169050919050565b600073ffffffffffffffffffffffffffffffffffffffff82169050919050565b6000819050919050565b82818337600083830152505050565b60005b838110156137f95780820151818401526020810190506137de565b83811115613808576000848401525b50505050565b6000600282049050600182168061382657607f821691505b6020821081141561383a57613839613918565b5b50919050565b613849826139e8565b810181811067ffffffffffffffff82111715613868576138676139a5565b5b80604052505050565b600061387c826137c2565b91507fffffffffffffffffffffffffffffffffffffffffffffffffffffffffffffffff8214156138af576138ae6138ba565b5b600182019050919050565b7f4e487b7100000000000000000000000000000000000000000000000000000000600052601160045260246000fd5b7f4e487b7100000000000000000000000000000000000000000000000000000000600052601260045260246000fd5b7f4e487b7100000000000000000000000000000000000000000000000000000000600052602260045260246000fd5b7f4e487b7100000000000000000000000000000000000000000000000000000000600052603160045260246000fd5b7f4e487b7100000000000000000000000000000000000000000000000000000000600052603260045260246000fd5b7f4e487b7100000000000000000000000000000000000000000000000000000000600052604160045260246000fd5b600080fd5b600080fd5b600080fd5b600080fd5b6000601f19601f8301169050919050565b7f455243373231456e756d657261626c653a206f776e657220696e646578206f7560008201527f74206f6620626f756e6473000000000000000000000000000000000000000000602082015250565b7f4552433732313a207472616e7366657220746f206e6f6e20455243373231526560008201527f63656976657220696d706c656d656e7465720000000000000000000000000000602082015250565b7f4f776e61626c653a206e6577206f776e657220697320746865207a65726f206160008201527f6464726573730000000000000000000000000000000000000000000000000000602082015250565b7f222c000000000000000000000000000000000000000000000000000000000000600082015250565b7f4552433732313a207472616e736665722066726f6d20696e636f72726563742060008201527f6f776e6572000000000000000000000000000000000000000000000000000000602082015250565b7f4552433732313a20746f6b656e20616c7265616479206d696e74656400000000600082015250565b7f22696d6167655f64617461223a20220000000000000000000000000000000000600082015250565b7f4552433732313a207472616e7366657220746f20746865207a65726f2061646460008201527f7265737300000000000000000000000000000000000000000000000000000000602082015250565b7f4552433732313a20617070726f766520746f2063616c6c657200000000000000600082015250565b7f226465736372697074696f6e223a202200000000000000000000000000000000600082015250565b7f4552433732313a2061646472657373207a65726f206973206e6f74206120766160008201527f6c6964206f776e65720000000000000000000000000000000000000000000000602082015250565b7f227d000000000000000000000000000000000000000000000000000000000000600082015250565b7f4552433732313a20617070726f76652063616c6c6572206973206e6f7420746f60008201527f6b656e206f776e6572206e6f7220617070726f76656420666f7220616c6c0000602082015250565b7f4552433732313a206d696e7420746f20746865207a65726f2061646472657373600082015250565b7f4f776e61626c653a2063616c6c6572206973206e6f7420746865206f776e6572600082015250565b7f7b226e616d65223a202200000000000000000000000000000000000000000000600082015250565b7f4552433732313a20696e76616c696420746f6b656e2049440000000000000000600082015250565b7f4552433732313a20617070726f76616c20746f2063757272656e74206f776e6560008201527f7200000000000000000000000000000000000000000000000000000000000000602082015250565b7f646174613a6170706c69636174696f6e2f6a736f6e3b6261736536342c000000600082015250565b7f455243373231456e756d657261626c653a20676c6f62616c20696e646578206f60008201527f7574206f6620626f756e64730000000000000000000000000000000000000000602082015250565b7f4552433732313a2063616c6c6572206973206e6f7420746f6b656e206f776e6560008201527f72206e6f7220617070726f766564000000000000000000000000000000000000602082015250565b7f2261747472696275746573223a20220000000000000000000000000000000000600082015250565b7f646174613a696d6167652f7376672b786d6c3b6261736536342c000000000000600082015250565b613f2d81613758565b8114613f3857600080fd5b50565b613f448161376a565b8114613f4f57600080fd5b50565b613f5b81613776565b8114613f6657600080fd5b50565b613f72816137c2565b8114613f7d57600080fd5b5056fe4142434445464748494a4b4c4d4e4f505152535455565758595a6162636465666768696a6b6c6d6e6f707172737475767778797a303132333435363738392b2fa2646970667358221220f698abef55b8bc26f47fca07bee87f33e4cad2729626e1405247a30866c469dd64736f6c63430008070033",
  "linkReferences": {},
  "deployedLinkReferences": {}
}